:100000000C9439000C9456000C9456000C94560035
:100010000C9456000C9456000C9456000C94560008
:100020000C9456000C948E010C9456000C945600BF
:100030000C9456000C94F7020C9456000C94560045
:100040000C9456000C9456000C9437040C945600F3
:100050000C9456000C9456000C9456000C945600C8
:100060000C9456000C9456003F065B4F666D7D075E
:100070007F6F11241FBECFEFD8E0DEBFCDBF11E0F0
:10008000A0E0B1E0E0E5FBE002C005900D92A632F1
:10009000B107D9F721E0A6E2B1E001C01D92A83571
:1000A000B207E1F70E943D020C94A6050C940000F3
:1000B0008F929F92AF92BF92EF92FF920F931F93F6
:1000C000CF93DF9300D01F92CDB7DEB74B015C0119
:1000D0007B0185014AE06EE471E0C4010E94810564
:1000E000EEE4F1E001900020E9F731978AE390E037
:1000F000918380834AE0BE016F5F7F4FC5010E94FC
:100100008105BE016F5F7F4F8EE491E00E9466051E
:100110000F2EFAE0AF2EB12CF02DC701B5010E94D1
:100120005205F82E80E00E941E056F2D81E00E948E
:100130001E05C801B5010E945205182F82E00E94D9
:100140001E05612F83E00E941E050F900F900F90F7
:10015000DF91CF911F910F91FF90EF90BF90AF90E3
:100160009F908F90089530990CC02FEF84E39CE00E
:10017000215080409040E1F700C0000081E090E015
:10018000089531990CC02FEF84E39CE0215080400A
:100190009040E1F700C0000082E090E008953299BD
:1001A0000CC02FEF84E39CE0215080409040E1F7A9
:1001B00000C0000083E090E0089580E090E00895A2
:1001C0001092800081E080936F0080E398EF90931D
:1001D00085008093840082E08093810008951A99BD
:1001E00007C0880F991FFC01EC5FFE4F80810895C6
:1001F000199907C0880F991FFC01E65FFE4F8081A7
:100200000895189907C0880F991FFC01E05FFE4F01
:10021000808108954F9907C0880F991FFC01EA5EFD
:10022000FE4F808108954E9907C0880F991FFC01E9
:10023000E45EFE4F80810895880F991FFC01EC5FFA
:10024000FE4F80810895811103C085B115B80895CE
:10025000813009F42D9A0895823051F0833071F085
:10026000813089F4613011F4439A089543980895D8
:10027000613011F4449A089544980895613011F45E
:10028000459A0895459808951092B00084E08093AF
:10029000B10081E08093700086E08093B200089501
:1002A0001092B0001092B10081E08093700086E05F
:1002B0008093B2000895813011F42C9A0895811131
:1002C00002C085B115B80895209100013091010157
:1002D000B9016350710984E893E00E943E05809162
:1002E000020190910301281B390B629FC001639F9B
:1002F000900D729F900D11248C599F4F893E23E0E1
:10030000920728F49093330180933201089588EE88
:1003100093E0909333018093320108951F920F92DE
:100320000FB60F9211242F933F934F935F936F93C8
:100330007F938F939F93AF93BF93EF93FF9380919E
:100340002E0190912F01019690932F0180932E0101
:100350008091300190913101019690933101809309
:10036000300120913201309133018217930781F4DB
:10037000109231011092300180E00E945B01809167
:100380003501813099F560E0809134010E942C01A3
:1003900020912E0130912F0180910401909105014F
:1003A00028173907F9F480913501813029F461E08B
:1003B000809134010E942C0181E00E945B01109227
:1003C0003101109230018091020190910301019757
:1003D00090930301809302010E94640110922F0107
:1003E00010922E0186E08093B2000CC020912E0165
:1003F00030912F0180910401909105012817390750
:1004000089F7DACFFF91EF91BF91AF919F918F91D3
:100410007F916F915F914F913F912F910F900FBE00
:100420000F901F90189589B185FB882780F9089552
:10043000109281001092B10080E00E94230181E0BF
:100440000E945B01089582E08093810084E08093A4
:10045000B10081E00E94230180E00E945B010E94C4
:1004600050010895ECE7F0E0808180648083EAE742
:10047000F0E080818768808308950E9432028EE1D7
:100480008AB98BB1806C8BB980E384B985B185B9A9
:1004900087B1886387B988B1876088B988B1877C5C
:1004A00088B980E895E20E94320567E081E00E9409
:1004B000FB0460E080E00E941E0560E081E00E9495
:1004C0001E0560E082E00E941E0560E083E00E945D
:1004D0001E0578942FEF89E698E1215080409040E6
:1004E000E1F700C000000E94E0000F2EF8E3AF2EFD
:1004F000F1E0BF2EF02DEE24E3940F2EF4E6CF2E84
:10050000D12CF02D0AE211E0C6E2D1E08091360153
:10051000909135018111FECF9111FCCF0E94B30063
:10052000909339018093380180913A018823A1F09A
:1005300080913A01813341F080913A01823321F078
:1005400080913A01833341F480913A0190E0C09761
:10055000909339018093380180913801909139014D
:100560000097A1F20E94EF00F82EF50180818093A0
:10057000340110923701E0923501D0923301C092DC
:10058000320110923101109230010E9444018F2DEE
:1005900090E0F8019183808313821282198218827D
:1005A00080910001909101019B838A8360912601D3
:1005B0007091270180912801909129010E94580093
:1005C0000E94E000A3CFECE7F0E09081907F8F7075
:1005D000892B8083EAE7F0E08081806480838081DA
:1005E00086FDFDCF809178009091790008951F924B
:1005F0000F920FB60F9211240F931F932F933F93D7
:100600004F935F936F937F938F939F93AF93BF931A
:10061000CF93EF93FF9380913B0190913C01019622
:1006200090933C0180933B0180913601813009F029
:1006300044C00E941302C82F86E00E94E3028C018E
:10064000C13019F081159240C0F50E94180210C007
:100650000E941302C82F86E00E94E3028C018FEFF4
:1006600090E722E0815090402040E1F700C0000078
:10067000C111EECF0115124058F3C6E181E00E948E
:100680005B019FEF2FE087E2915020408040E1F72F
:1006900000C0000080E00E945B019FEF23EC89E036
:1006A000915020408040E1F700C00000C15031F778
:1006B0000E94230281E00E94230180913B019091DE
:1006C0003C01883E934009F0B8C010923C01109262
:1006D0003B0180913501813009F05CC0E6E2F1E038
:1006E0008281938101979383828399230CF048C080
:1006F0001382128280819181019791838083992353
:10070000A4F51092270110922601609126017091A4
:10071000270180912801909129010E9458008FEFB4
:1007200095EA2EE0815090402040E1F700C00000A3
:1007300060912A0170912B0180912C0190912D01E3
:100740000E9458001092350181E08093360161E0EB
:10075000809134010E942C010E94500180E00E948F
:100760005B0181E00E9423016EC0609126017091BF
:10077000270180912801909129010E9458000AC008
:1007800060912601709127018091280190912901A3
:100790000E94580080913601813009F04EC0EAE293
:1007A000F1E0828193810197938382839923DCF521
:1007B000808191810197918380832BE330E03383A3
:1007C000228399232CF51182108213821282609168
:1007D0002A0170912B0180912C0190912D010E9492
:1007E00058001092360180E00E94230160E0809161
:1007F00034010E942C011092330110923201809139
:10080000000190910101909303018093020115C0B2
:1008100060912A0170912B0180912C0190912D0102
:100820000E9458000AC060912A0170912B018091AA
:100830002C0190912D010E94580080E398EF909335
:10084000850080938400FF91EF91CF91BF91AF918C
:100850009F918F917F916F915F914F913F912F91D8
:100860001F910F910F900FBE0F901F9018951F9220
:100870000F920FB60F9211242F933F934F935F93D4
:100880006F937F938F939F93AF93BF93CF93EF9388
:10089000FF93C091C6008FEC8C0F833078F49BB12E
:1008A00084E089278BB980913601811127C080911E
:1008B000350181111EC0C0933A011BC08C2F8F7D62
:1008C000833531F480913601882381F00E9418022B
:1008D000C33411F0C336B9F480913601882399F0FE
:1008E0000E94230281E00E9423010DC0C33491F7CE
:1008F0000AC08C2F8F7D833559F7F8CF8C2F8F7DD1
:10090000833531F7E3CFFF91EF91CF91BF91AF9155
:100910009F918F917F916F915F914F913F912F9117
:100920000F900FBE0F901F9018955C9A5B9A8AE10A
:100930008A95F1F700C05C9808955B988AE18A95E2
:10094000F1F700C05C988AE18A95F1F700C05B9AE4
:100950008AE18A95F1F700C05C9A089598E05B9867
:100960002AE12A95F1F700C080FF02C05C9A01C01D
:100970005C985B9A2AE12A95F1F700C08695915020
:1009800071F75B9854985C9A8AE18A95F1F700C0F8
:1009900029B1207130E081E0121613060CF080E0DE
:1009A0001216130614F4549A5C989AE19A95F1F78A
:1009B00000C05B9A2AE12A95F1F700C05B989AE1A2
:1009C0009A95F1F700C0549A0895CF93811102C00F
:1009D000C0E001C0C8E0683008F067E0C62BC093F3
:1009E00025010E9495048C2F80680E94AE040E940D
:1009F0009D04CF9108959AB198619AB99BB1977E61
:100A00009BB90E94E5040895CF93DF93C82FD62F9A
:100A10000E94950484E40E94AE040E949D040E94FA
:100A200095048C2F8370806C0E94AE048D2F0E94E1
:100A3000AE040E949D04DF91CF9108956A3030F496
:100A4000E62FF0E0E859FF4F649101C060E081308B
:100A500031F4909124019078692B609324010E94D5
:100A6000040508951092C50087E68093C40086E0CF
:100A70008093C20088E98093C1000895AA1BBB1B24
:100A800051E107C0AA1FBB1FA617B70710F0A61B8E
:100A9000B70B881F991F5A95A9F780959095BC01AF
:100AA000CD01089597FB072E16F4009407D077FD2B
:100AB00009D00E943E0507FC05D03EF49095819533
:100AC0009F4F0895709561957F4F0895FB01DC015C
:100AD0000D900020E9F7119701900D920020E1F7A9
:100AE0000895DC01FC01672F71917723E1F73297BC
:100AF00004C07C916D9370836291AE17BF07C8F3F9
:100B00000895BB274A3031F4992322F4BDE2909531
:100B100081959F4F0C948D05BB27FB015527AA2774
:100B2000880F991FAA1FA41710F0A41B839550517A
:100B3000B9F7A05DAA3308F0A95DA193009779F7F2
:100B4000B111B1931192CB010C947105F894FFCFC0
:100B50002D002D00E80305000A0014000A0014000F
:100B600028000F001E003C0014002800500019004F
:060B700032006400FF0FDB
:00000001FF
